:100000000C948C000C94B4000C94B4000C94B400C8
:100010000C94B4000C94B4000C94B4000C94880CB0
:100020000C94B4000C94B4000C94B4000C94B40080
:100030000C94B4000C94B4000C94B4000C94B40070
:100040000C94B2080C94B4000C94310F0C94630F10
:100050000C94B4000C94B4000C94B4000C94B40050
:100060000C946C050C94B40008000000BE92244966
:10007000123EABAAAA2ABECDCCCC4C3E00000080DA
:10008000BEABAAAAAA3E00000000BF000000803F4D
:100090000000000000084178D3BB4387D1133D190D
:1000A0000E3CC3BD4282AD2B3E68EC8276BED98F3A
:1000B000E1A93E4C80EFFFBE01C4FF7F3F0000007E
:1000C0000000000000080002010000030407000017
:1000D000000000000000010204081020408001021E
:1000E000040810200102040810200404040404047D
:1000F00004040202020202020303030303030000DA
:100100000000250028002B0000000000240027002C
:100110002A0002008A04930F11241FBECFEFD8E0FB
:10012000DEBFCDBF11E0A0E0B1E0E0EAF6E202C040
:1001300005900D92A036B107D9F727E0A0E6B1E00F
:1001400001C01D92A53DB207E1F711E0C8E1D1E081
:1001500004C02297FE010E943B13C431D107C9F7A6
:100160000E94D70F0C944E130C9400001F93CF9352
:10017000DF93182FC3E0D0E020EA3FE040E050E0FA
:100180006BE777E0812F0E94440A68EF7AE280E013
:1001900090E00E942B0920E43FE140E050E064EA57
:1001A00076E0812F0E94440A60E47FE180E090E0E5
:1001B0000E942B09219701F7DF91CF911F9108959C
:1001C00066E171E088E397E00E942F0D8AE593E0F5
:1001D0000E949D0726E040E855E260E070E088E379
:1001E00097E00E94CF0E60E08EE00E94B70960E0C9
:1001F0008FE00E94B70960E081E10E94B70961E0E9
:1002000080E10E94B70980E190E00C94B600AF92C3
:10021000BF92CF92DF92EF92FF920F931F93BC0198
:10022000882777FD8095982F1F921F921F9224E6B2
:100230002F93A12CB12C650110E2E12E13E0F12ED9
:1002400000E010E020E030E0A9010E94E60F0F90EE
:100250000F900F900F90CB011F910F91FF90EF9097
:10026000DF90CF90BF90AF9008954F925F926F92C2
:100270007F928F929F92AF92BF92CF92DF92EF9236
:10028000FF920F931F93CF93DF937C01EB016431B7
:1002900071053CF08B010451110974E1872E912CFA
:1002A0006CC0452B09F466C044E1C42ED12CCC1A95
:1002B000DD0A5E01AA0CBB1CAE0CBF1C00E010E006
:1002C000412C512C3201F801EE0FFF1FEA0DFB1DEE
:1002D00064AD75AD882777FD8095982F0E942D110C
:1002E0009B01AC01C301B2010E942E102B013C0105
:1002F0000F5F1F4F0C151D0531F74E0100E010E098
:100300005801AA0CBB1CAE0CBF1CC12CD12C0C1765
:100310001D07CCF4F501EC0DFD1D6081718188276E
:1003200077FD8095982F0E942D119B01AC01C30190
:10033000B2010E942E102B013C010F5F1F4F82E083
:10034000C80ED11CE4CFCD2B21F4F701808191811F
:1003500018C0B401882777FD8095982F0E942D1131
:100360009B01AC01C301B2010E9492100E94FA10DD
:10037000CB0107C04B0100E010E0412C512C3201B1
:10038000BFCFDF91CF911F910F91FF90EF90DF9042
:10039000CF90BF90AF909F908F907F906F905F9025
:1003A0004F900895BC01882777FD8095982F0E9473
:1003B0002D119B01AC0160E070EC8FE794E40E948A
:1003C000921020E030E040E85FE30E942D1020E032
:1003D00030EC42EF56EC0E94FE1120E030EC42EF90
:1003E00056EC0E9492100E94BE1120E038E945E8C8
:1003F00055E40E9492102FE03FEC4BE55BE30E9436
:100400002E109B01AC0160E070E080E89FE30E9449
:10041000921023E333E948E853E40E942D100E9430
:10042000FA10CB010895DF92EF92FF920F931F9382
:10043000CF93DF93CDB7DEB760970FB6F894DEBFEA
:100440000FBECDBFD82E90E1E6E0F1E0DE011196BF
:1004500001900D929A95E1F78E010F5F1F4F7E017B
:1004600081E1E80EF11CF801619171918F0128EE94
:1004700033E040E050E08D2D0E94440A60ED77E0CB
:1004800080E090E00E942B090E151F0561F7609631
:100490000FB6F894DEBF0FBECDBFDF91CF911F9195
:1004A0000F91FF90EF90DF9008954F925F926F92BF
:1004B0007F928F929F92AF92BF92CF92DF92EF92F4
:1004C000FF920F931F93CF93DF93CDB7DEB72F9794
:1004D0000FB6F894DEBF0FBECDBF0E94FC0870932C
:1004E000630160936201E0916401F0916501EE0F98
:1004F000FF1FEA59FE4F718360834AE050E088E3B2
:1005000097E00E94E40D8EE00E94270A0E940701F6
:100510006C014AE050E0BC0188E397E00E94E40DE2
:100520006CE271E088E397E00E94220D8FE00E9468
:10053000270A0E94D2017C014AE050E0BC0188E316
:1005400097E00E94E40D6CE271E088E397E00E947E
:10055000220D81E10E94270A8C014AE050E0BC0193
:1005600088E397E00E94E40D6CE271E088E397E095
:100570000E94220D2091640130916501220F331FEA
:10058000F901EA50FD4FD182C082F901EE56FD4FCC
:10059000F182E082F901E25DFD4F118300839E014B
:1005A000235F3F4FAE01425F5F4FBE01615F7F4FF0
:1005B0008AE593E00E94B0079E012F5F3F4FAE0196
:1005C0004B5F5F4FBE01675F7F4F8AE593E00E94FC
:1005D0004D0820E030E048EC52E469857A858B854F
:1005E0009C850E94FE112B013C0169877A878B87CD
:1005F0009C8720E030E048EC52E46D817E818F8161
:1006000098850E94FE114B015C016D837E838F8370
:10061000988720E030E048EC52E469817A818B8150
:100620009C810E94FE116B017C0169837A838B831C
:100630009C83A3019201C301B2010E94FE112B0110
:100640003C01A5019401C501B4010E94FE119B016A
:10065000AC01C301B2010E942E104B015C01A70145
:100660009601C701B6010E94FE119B01AC01C501B4
:10067000B4010E942E100E9465120E94FA102B01F4
:100680003C01E0916401F0916501EE0FFF1FE6531C
:10069000FE4F518240824AE050E0B20188E397E089
:1006A0000E94E40D60E471E088E397E00E942F0D62
:1006B000C0906001D0906101E0906401F09065010C
:1006C000A601B7018EE292E00E9435015C01A6010D
:1006D000B7018AEC91E00E943501481A590A8FE16E
:1006E000481651042CF40A191B090536110544F06B
:1006F00080E190E00E94130280E190E00E94B60049
:1007000060ED77E080E090E00E942B098091640129
:10071000909165010196823391052CF490936501C7
:10072000809364010DC01092650110926401809164
:100730006001909161010196909361018093600145
:100740002F960FB6F894DEBF0FBECDBFDF91CF91CD
:100750001F910F91FF90EF90DF90CF90BF90AF90DF
:100760009F908F907F906F905F904F9008958091B1
:100770008A0690E020918B06821B910908952091B2
:100780008B0680918A06281750F4E22FF0E0E45798
:10079000F94F808190E02F5F20938B0608958FEFB3
:1007A0009FEF0895E0918B0680918A06E81730F458
:1007B000F0E0E457F94F808190E008958FEF9FEFCC
:1007C00008950895CF92DF92EF92FF920F931F93B7
:1007D000CF93DF937C01CB018A012091660622230F
:1007E00089F0EB016B01C40ED51ECC15DD0569F057
:1007F0006991D701ED91FC910190F081E02DC70145
:100800000995F3CF642F0E944305C801DF91CF9172
:100810001F910F91FF90EF90DF90CF900895CF93AD
:10082000DF931F92CDB7DEB769832091660622233E
:10083000D1F020916706203240F021E030E0FC0149
:100840003383228380E090E015C080916806E82F12
:10085000F0E0E759F94F998190838F5F80936806A4
:100860008093670605C061E0CE0101960E944305B2
:1008700081E090E00F90DF91CF910895FC01138209
:10088000128248EE53E060E070E044835583668353
:10089000778382E391E091838083089510928B06A1
:1008A00010928A0610926806109267060C948E04C5
:1008B000862F413208F040E26CE876E00E94AC04FA
:1008C00010928B0680938A06089521E00C945804B8
:1008D00081E0809366066093890610926806109204
:1008E000670608950C9468040F93062F21E0409149
:1008F000670669E676E0809189060E94F00410920E
:10090000680610926706109266060F91089561E0DE
:100910000C9474048AE596E00C943E041092190736
:1009200081E0809317071092160761E082E10E9430
:10093000F00961E083E10E94F009E9EBF0E08081D9
:100940008E7F808380818D7F808388E48093B80050
:1009500085E48093BC000895413208F03FC0909137
:1009600019079111FCCF91E0909319072093170775
:100970002FEF2093AC061092F106240F2093F0067F
:100980009093180790911807880F892B8093180768
:1009900080911607813041F4109216078091180754
:1009A0008093BB0085EC01C085EE8093BC008091F4
:1009B00019078130E1F38091F106841710F440911A
:1009C000F10622EF36E0FB01D9018A2F821B841742
:1009D00018F48D918193F9CF842F089580E00895C4
:1009E0000F93413208F046C0909119079111FCCF46
:1009F00092E090931907009317079FEF9093AC062E
:100A00001092F1064093F006FB0162EF76E0DB0105
:100A10009A2F961B941718F491919D93F9CF1092E9
:100A2000180790911807880F892B809318078091D9
:100A30001607813041F410921607809118078093B1
:100A4000BB0085EC01C085EE8093BC00222321F021
:100A5000809119078230E1F38091AC068F3F61F0FD
:100A60008091AC06803251F08091AC06803341F425
:100A700083E007C081E005C080E003C082E001C0E0
:100A800084E00F910895613298F420911907243081
:100A900089F46093CE06FC0180ED96E0DC012A2FFC
:100AA000281B261718F421912D93F9CF80E0089583
:100AB00081E0089582E0089585ED8093BC008091E7
:100AC000BC0084FDFCCF10921907089585EC80933B
:100AD000BC001092190708951F920F920FB60F9243
:100AE00011242F933F934F935F936F937F938F9333
:100AF0009F93AF93BF93EF93FF938091B900887F4B
:100B0000803609F49CC068F5883209F45BC090F423
:100B1000803109F454C038F4882309F4F5C08830D2
:100B200009F44DC0F5C0883109F44CC0803209F495
:100B30005DC0EEC0803409F468C048F4803309F425
:100B400055C0883309F0E4C08093AC06A8C0803556
:100B500009F44FC0883509F45DC0883409F0D8C065
:100B6000D5C0883909F4C6C0A8F4883709F467C02D
:100B700038F4883609F463C0803709F460C0C8C00F
:100B8000883809F4B7C0803909F45FC0803809F0AB
:100B9000BFC05BC0803B09F485C038F4803A09F4DB
:100BA00066C0883A09F47EC0B3C0803C09F4A6C090
:100BB000883C09F4A3C0883B09F489C0A9C080918E
:100BC000180710C09091F1068091F006981770F503
:100BD000E091F10681E08E0F8093F106F0E0EE5097
:100BE000F94F80818093BB0085EC85C08093AC0673
:100BF0008DC0E091F10681E08E0F8093F106809127
:100C0000BB00F0E0EE50F94F80839091F1068091A7
:100C1000F0066DC0E091F10681E08E0F8093F10641
:100C20008091BB00F0E0EE50F94F80838091170770
:100C300081116CC081E08093160784EA60C083E074
:100C4000809319071092AD06CFCF8091AD06803208
:100C500008F050C0E091AD0681E08E0F8093AD06A4
:100C60008091BB00F0E0E255F94F8083BDCF8091C9
:100C7000AD06803230F4E091AD06F0E0E255F94F78
:100C800010820E945C056091AD0670E0E091120751
:100C9000F09113078EEA96E009951092AD060E9436
:100CA000660536C084E0809319071092CF06109233
:100CB000CE06E0911407F091150709958091CE06B4
:100CC000811105C081E08093CE061092D006E0919C
:100CD000CF0681E08E0F8093CF06F0E0E053F94F0E
:100CE00080818093BB009091CF068091CE069817AB
:100CF00008F47ACF85E88093BC000AC085EC809325
:100D0000BC001092190704C01092AC060E945C054A
:100D1000FF91EF91BF91AF919F918F917F916F91D3
:100D20005F914F913F912F910F900FBE0F901F90A9
:100D300018954F925F926F927F92AF92BF92CF922F
:100D4000DF92EF92FF920F931F93CF93DF93EC010B
:100D500000E010E060E070E0CB01FE01E00FF11F69
:100D6000608371838283938322E133E840E45DE30F
:100D70000E942E10045F1F4F003821E0120769F710
:100D800000E010E062E173E880E49DEBFE01E00F1B
:100D9000F11FEC50FD4F608371838283938322E1C6
:100DA00033E840E45DE30E942D100C501109003837
:100DB000EEEF1E0759F78E0136E1A32EB12CC12CA0
:100DC000D12C44EBE42E42E4F42E412C512C320180
:100DD000F8014482558266827782C086D186E28697
:100DE000F38626EF38E24CE250E4C301B2010E94E0
:100DF0002E102B013C0126EF38E24CE250E4C701F3
:100E0000B6010E942D106B017C01F1E0AF1AB10810
:100E1000045F1F4FA114B104D9F68E0185E1A82EFD
:100E2000B12C98EBC92E9EE9D92E9EEAE92E92ECC0
:100E3000F92E26EF422E28E2522E2CE2622E20ECD2
:100E4000722EF801E850FD4F408251826282738217
:100E50003496C082D182E282F38226EF38E24CE2FD
:100E600050E4C301B2010E942D102B013C0126EF7A
:100E700038E24CE250E4C701B6010E942E106B012B
:100E80007C0121E0A21AB1080C501109A114B1048F
:100E9000C1F625E130E080E090E0AFE7B3E4FE0189
:100EA000E45FFE4F80839183A283B3833496808373
:100EB0009183A283B383215031092C9621153105EA
:100EC00071F7DF91CF911F910F91FF90EF90DF901D
:100ED000CF90BF90AF907F906F905F904F900895AC
:100EE0001F93CF93DF931F92CDB7DEB7162F8AE5FE
:100EF00096E049830E944E046CE470E08AE596E037
:100F00000E947204612F8AE596E00E940F044981D5
:100F1000642F8AE596E00E940F048AE596E00F9020
:100F2000DF91CF911F910C948704462F67E00C94BA
:100F30007007462F68E00C947007CF93DF93EC01A5
:100F40000E94990660E0CE010E94950762E0CE0102
:100F50000E94990761E0CE01DF91CF910C94950733
:100F60003F924F925F926F927F928F929F92AF9239
:100F7000BF92CF92DF92EF92FF920F931F93CF9386
:100F8000DF9300D01F92CDB7DEB74B015A01690144
:100F900050E4352ECE0101967C013B823A823982A3
:100FA0008AE596E00E94B703181619062CF48AE524
:100FB00096E00E94BF03F4CF43E050E06CE470E0A1
:100FC0008AE596E00E9465040E9408092B013C0115
:100FD00087018AE596E00E94B703892BF1F0C801EA
:100FE0008E199F090397B4F4F8018081803490F042
:100FF0008AE596E00E94BF03F80180830E940809F9
:101000006419750986099709653F71408105910545
:1010100058F3C3CF0F5F1F4FDCCF898124E0829F3D
:10102000C0011124282F87FF02C023E0280F259537
:101030002595F40120838A81F4E08F9FC00111245B
:10104000282F87FF02C023E0280F25952595F5015D
:1010500020838B81F4E08F9FC0011124282F87FF0C
:1010600002C023E0280F25952595F601208381E015
:101070000F900F900F90DF91CF911F910F91FF90E4
:10108000EF90DF90CF90BF90AF909F908F907F9028
:101090006F905F904F903F900895BF92CF92DF92F4
:1010A000EF92FF920F931F93CF93DF9300D01F9285
:1010B000CDB7DEB76B017A0189019E012F5F3F4FEB
:1010C000AE014E5F5F4FBE016D5F7F4F0E94B00764
:1010D000B82E8823C9F16B81772767FD7095872F1C
:1010E000972F0E942D1120E030E048EA51E40E9441
:1010F0009210F60160837183828393836A817727DC
:1011000067FD7095872F972F0E942D1120E030E00A
:1011100048EA51E40E949210F70160837183828350
:1011200093836981772767FD7095872F972F0E949A
:101130002D1120E030E048EA51E40E949210F801BD
:1011400060837183828393838B2D0F900F900F9018
:10115000DF91CF911F910F91FF90EF90DF90CF9093
:10116000BF9008951F920F920FB60F9211242F93E4
:101170003F938F939F93AF93BF9380911B07909161
:101180001C07A0911D07B0911E0730911A0723E09C
:10119000230F2D3720F40196A11DB11D05C026E8AF
:1011A000230F0296A11DB11D20931A0780931B07E0
:1011B00090931C07A0931D07B0931E0780911F07F3
:1011C00090912007A0912107B09122070196A11DBF
:1011D000B11D80931F0790932007A0932107B09320
:1011E0002207BF91AF919F918F913F912F910F90C7
:1011F0000FBE0F901F9018952FB7F89460911B07A2
:1012000070911C0780911D0790911E072FBF0895B4
:101210003FB7F89480911F0790912007A091210774
:10122000B091220726B5A89B05C02F3F19F0019663
:10123000A11DB11D3FBF6627782F892F9A2F620FFE
:10124000711D811D911D42E0660F771F881F991F38
:101250004A95D1F70895CF92DF92EF92FF92CF9304
:10126000DF936B017C010E940809EB01C114D104DA
:10127000E104F10489F00E94260A0E9408096C1B0F
:101280007D0B683E734090F381E0C81AD108E108F5
:10129000F108C851DC4FEACFDF91CF91FF90EF907A
:1012A000DF90CF900895789484B5826084BD84B532
:1012B000816084BD85B5826085BD85B5816085BD51
:1012C000EEE6F0E0808181608083E1E8F0E010826A
:1012D000808182608083808181608083E0E8F0E0AB
:1012E000808181608083E1EBF0E080818460808395
:1012F000E0EBF0E0808181608083EAE7F0E08081CC
:10130000846080838081826080838081816080832B
:101310008081806880831092C1000895833081F0BD
:1013200028F4813099F08230A1F008958730A9F037
:101330008830B9F08430D1F4809180008F7D03C073
:10134000809180008F7780938000089584B58F7797
:1013500002C084B58F7D84BD08958091B0008F77E1
:1013600003C08091B0008F7D8093B0000895CF932B
:10137000DF9390E0FC01EA52FF4F2491FC01E6511B
:10138000FF4F8491882349F190E0880F991FFC0159
:10139000E85FFE4FA591B49182509F4FFC01C5912B
:1013A000D4919FB7611108C0F8948C912095822345
:1013B0008C93888182230AC0623051F4F8948C9116
:1013C000322F309583238C938881822B888304C0AD
:1013D000F8948C91822B8C939FBFDF91CF910895CD
:1013E0000F931F93CF93DF931F92CDB7DEB7282FB4
:1013F00030E0F901EE53FF4F8491F901EA52FF4FBB
:101400001491F901E651FF4F04910023C9F088239C
:1014100021F069830E948E096981E02FF0E0EE0FD0
:10142000FF1FE250FF4FA591B4919FB7F8948C91A4
:10143000611103C01095812301C0812B8C939FBF44
:101440000F90DF91CF911F910F91089508958E30E5
:1014500008F08E5087702091040190E4299F90013C
:101460001124822B80937C0080917A008064809389
:101470007A0080917A0086FDFCCF809178002091DF
:10148000790090E0922B08953F924F925F926F9275
:101490007F928F929F92AF92BF92CF92DF92EF9204
:1014A000FF920F931F93CF93DF9300D000D0CDB75F
:1014B000DEB78B0129013A0190910501981721F0BF
:1014C0009F3F09F0DAC104C0E2E1F1E0349081C04D
:1014D00080930501E2E1F1E0E491EF3F09F4CDC131
:1014E000E13031F1E23009F44BC0E11171C014BCBC
:1014F00015BC94B5926094BD95B5916095BD282FAB
:1015000030E0F901E651FF4FE491F0E0EE0FFF1FEC
:10151000E250FF4F45915491509333074093320767
:10152000F901EA52FF4F249120933107312C53C027
:1015300010928000109281009091810098609093A9
:10154000810090918100916090938100282F30E07C
:10155000F901E651FF4FE491F0E0EE0FFF1FE2507A
:10156000FF4F4591549150932C0740932B07F9015D
:10157000EA52FF4F249120932A07332433942BC03F
:101580001092B0001092B1009091B00092609093D0
:10159000B0009091B10091609093B100282F30E09D
:1015A000F901E651FF4FE491F0E0EE0FFF1FE2502A
:1015B000FF4F459154915093250740932407F9011B
:1015C000EA52FF4F24912093230752E0352E03C0A7
:1015D0003E2E37FC52C161E00E94B7094801A12CA0
:1015E000B12C832D8D7F09F0C7C060E072E18AE7DE
:1015F00090E0A50194010E940F1329833A834B8345
:101600005C8369017A0181E0C81AD108E108F10818
:101610009FEFC916D104E104F10409F008F49AC05F
:1016200060E472E48FE090E0A50194010E940F1342
:1016300069017A01E1E0CE1AD108E108F108F2E08F
:101640003F1219C08FEFC816D104E104F10409F06C
:1016500008F48AC060E970ED83E090E0A501940190
:101660000E940F1369017A0191E0C91AD108E108BB
:10167000F10883E001C082E0EFEFCE16D104E1046F
:10168000F10409F008F467C068E478EE81E090E0C6
:10169000A50194010E940F1369017A01F1E0CF1AAC
:1016A000D108E108F1083320E1F082E038121BC0D4
:1016B0009FEFC916D104E104F10409F008F4DBC07E
:1016C00064E274EF80E090E0A50194010E940F13A2
:1016D00069017A01E1E0CE1AD108E108F10885E05C
:1016E00003C083E001C084E0FFEFCF16D104E10422
:1016F000F10489F180F162E17AE780E090E0A501F0
:1017000094010E940F1369017A0181E0C81AD1087F
:10171000E108F108311002C084E001C086E09FEFCB
:10172000C916D104E104F104B1F0A8F0C980DA804F
:10173000EB80FC809AE0F594E794D794C7949A954F
:10174000D1F7E1E0CE1AD108E108F108332031F0F9
:1017500087E00BC081E0332011F007C085E095B52C
:10176000987F982B95BD38C082E09091B100987F0A
:10177000982B9093B10030C060E072E18AE790E06E
:10178000A50194010E940F1369017A01F1E0CF1ABB
:10179000D108E108F108C114D10481E0E806F104A0
:1017A00088F068E478EE81E090E0A50194010E9461
:1017B0000F1369017A0191E0C91AD108E108F10813
:1017C00093E001C091E0E1E03E1206C0809181000B
:1017D000887F892B80938100411451046104710436
:1017E00071F0D801AA0FBB1FA30192010E942E1312
:1017F00028EE33E040E050E00E94ED1203C02FEFEE
:101800003FEFA901F1E03F16A1F082E0381619F18F
:10181000311033C0C7BC2093340730933507409351
:1018200036075093370780916E00826080936E0078
:1018300024C0D0928900C092880020932D07309355
:101840002E0740932F075093300780916F008260DE
:1018500080936F0012C0C092B3002093260730938C
:1018600027074093280750932907809170008260D2
:101870008093700002C084E078CF0F900F900F909B
:101880000F90DF91CF911F910F91FF90EF90DF901C
:10189000CF90BF90AF909F908F907F906F905F9010
:1018A0004F903F900895813039F018F0823051F018
:1018B000089510926E00089580916F008D7F80933F
:1018C0006F000895809170008D7F8093700081E09B
:1018D0008093B0008091B100887F84608093B100D4
:1018E0001092B3000895CF93C82F809105018C13F7
:1018F00007C0E2E1F1E084919FEF9093050101C000
:101900008FEF0E94530C60E08C2FCF910C94F00964
:101910001F920F920FB60F9211242F933F934F9364
:101920005F936F937F938F939F93AF93BF93EF9347
:10193000FF938091260790912707A0912807B091E7
:101940002907892B8A2B8B2B51F190912307E0914A
:101950002407F091250780818927808380912607BD
:1019600090912707A0912807B0912907181619060A
:101970001A061B06C4F48091260790912707A091B0
:101980002807B09129070197A109B109809326077B
:1019900090932707A0932807B093290704C080914C
:1019A00005010E94730CFF91EF91BF91AF919F9140
:1019B0008F917F916F915F914F913F912F910F90F8
:1019C0000FBE0F901F901895CF92DF92EF92FF926B
:1019D0000F931F93CF93DF936C017A01EB01E60E17
:1019E000F71E00E010E0CE15DF0561F06991D60129
:1019F000ED91FC910190F081E02DC6010995080F51
:101A0000191FF1CFC801DF91CF911F910F91FF9066
:101A1000EF90DF90CF9008956115710581F0DB01A3
:101A20000D900020E9F7AD0141505109461B570BBD
:101A3000DC01ED91FC910280F381E02D099480E0BE
:101A400090E008950C940C0DDC01ED91FC91019057
:101A5000F081E02D09946EE371E00C940C0D0F936E
:101A60001F93CF93DF93EC010E940C0D8C01CE01EC
:101A70000E942B0D800F911FDF91CF911F910F912D
:101A800008958F929F92AF92BF92CF92DF92EF9282
:101A9000FF920F931F93CF93DF93CDB7DEB7A1973C
:101AA0000FB6F894DEBF0FBECDBF7C01C42EE52F6C
:101AB000CB01D22E19A221E02D1510F02AE0D22E52
:101AC0008E010F5D1F4F8D2C912CA12CB12C6C2DF4
:101AD0007E2FA50194010E94ED128C2DD29E8019BB
:101AE0001124015011098A3014F4805D01C0895C11
:101AF000F8018083211531054105510521F0C22EE1
:101B0000E32FCA01E4CFB801C7010E940C0DA196D2
:101B10000FB6F894DEBF0FBECDBFDF91CF911F91FE
:101B20000F91FF90EF90DF90CF90BF90AF909F907C
:101B30008F900895CF92DF92EF92FF920F931F93B1
:101B4000CF93DF93EC016A017B012115310579F414
:101B5000E881F9810190F081E02D642FDF91CF9130
:101B60001F910F91FF90EF90DF90CF9009942A3052
:101B70003105E9F477FF1AC06DE20E94240D8C0153
:101B800044275527BA014C195D096E097F092AE0DF
:101B9000CE010E94410D800F911FDF91CF911F91C7
:101BA0000F91FF90EF90DF90CF9008952AE0B7015A
:101BB000A601CE01DF91CF911F910F91FF90EF9081
:101BC000DF90CF900C94410D9A01AB01662757FD31
:101BD0006095762F0C949A0DFC01818D228D90E0FA
:101BE000805C9F4F821B91098F7399270895FC0198
:101BF000918D828D981731F0828DE80FF11D858DC2
:101C000090E008958FEF9FEF0895FC01918D828DF4
:101C1000981761F0828DDF01A80FB11D5D968C9140
:101C2000928D9F5F9F73928F90E008958FEF9FEF4B
:101C3000089589E89FE0892B49F080E090E0892BA6
:101C400029F00E94890F81110C9400000895FC0175
:101C5000848DDF01A80FB11DA35ABF4F2C91848D35
:101C600090E001968F739927848FA689B7892C936A
:101C7000A089B1898C9180648C93938D848D981305
:101C800006C00288F389E02D80818F7D80830895CE
:101C9000CF93DF93EC01888D8823C9F0EA89FB8913
:101CA000808185FD05C0A889B9898C9186FD0FC00A
:101CB0000FB607FCF5CF808185FFF2CFA889B989DF
:101CC0008C9185FFEDCFCE010E94270EE7CFDF91EB
:101CD000CF910895CF92DF92FF920F931F93CF93EE
:101CE000DF931F92CDB7DEB76C0181E0D601589625
:101CF0008C9358975B969C915B975C968C915C97C4
:101D0000981307C05096ED91FC915197808185FD05
:101D10002EC0F601038D10E00F5F1F4F0F731127C8
:101D2000F02EF601848DF81211C00FB607FCF9CF22
:101D3000D6015096ED91FC915197808185FFF1CFAE
:101D4000C60169830E94270E6981EBCF838DE80F5E
:101D5000F11DE35AFF4F6083D6015B960C935B97AE
:101D60005296ED91FC915397808180620CC0D60110
:101D70005696ED91FC91579760835096ED91FC91AA
:101D8000519780818064808381E090E00F90DF91A3
:101D9000CF911F910F91FF90DF90CF900895BF9248
:101DA000CF92DF92EF92FF92CF93DF93EC016A0123
:101DB0007B01B22EE889F98982E08083411581EEAA
:101DC000580761057105A1F060E079E08DE390E0CE
:101DD000A70196010E94ED122150310941095109D4
:101DE0005695479537952795211580E1380798F046
:101DF000E889F989108260E874E88EE190E0A70133
:101E000096010E94ED122150310941095109569560
:101E1000479537952795EC85FD853083EE85FF85C1
:101E20002083188EEC89FD89B082EA89FB89808144
:101E300080618083EA89FB89808188608083EA8968
:101E4000FB89808180688083EA89FB8980818F7D1E
:101E50008083DF91CF91FF90EF90DF90CF90BF9084
:101E600008951F920F920FB60F9211242F938F9304
:101E70009F93EF93FF93E0914807F091490780818A
:101E8000E0914E07F0914F0782FD12C09081809142
:101E900051078F5F8F7320915207821751F0E091A5
:101EA0005107F0E0E85CF84F958F8093510701C02F
:101EB0008081FF91EF919F918F912F910F900FBE95
:101EC0000F901F9018951F920F920FB60F9211242A
:101ED0002F933F934F935F936F937F938F939F9332
:101EE000AF93BF93EF93FF9388E397E00E94270E91
:101EF000FF91EF91BF91AF919F918F917F916F91E2
:101F00005F914F913F912F910F900FBE0F901F90B7
:101F1000189588E397E00E94EC0D21E0892B09F4E5
:101F200020E0822F089510923B0710923A0788EE26
:101F300093E0A0E0B0E080933C0790933D07A0932E
:101F40003E07B0933F0783E591E090933907809374
:101F5000380785EC90E0909345078093440784EC24
:101F600090E0909347078093460780EC90E0909331
:101F700049078093480781EC90E090934B0780934A
:101F80004A0782EC90E090934D0780934C0786ECD3
:101F900090E090934F0780934E0710925107109254
:101FA00052071092530710925407089508950E9403
:101FB00053090E94D60F0E94E000C9E1DEE00E94B2
:101FC00055022097E1F30E94190EF9CF4F925F92CC
:101FD0006F927F92AF92BF92CF92DF92EF92FF9279
:101FE0000F931F93CF93DF93CDB7DEB729013A014B
:101FF000621B730B840B950B29893A894B895C8989
:102000002A193B094C095D09298B3A8B4B8B5C8B58
:102010009B01AC0169897A898B899C890E94DD12B8
:10202000E418F50806091709A80197010E940F1383
:102030002A0D3B1D4C1D5D1DCA01B901DF91CF91D9
:102040001F910F91FF90EF90DF90CF90BF90AF90D6
:102050007F906F905F904F9008955058BB27AA27AC
:102060000ED04DC13ED130F043D120F031F49F3F2E
:1020700011F41EF433C10EF4E095E7FB29C1E92FFA
:102080004FD180F3BA17620773078407950718F0DA
:1020900071F49EF567C10EF4E0950B2EBA2FA02DBA
:1020A0000B01B90190010C01CA01A0011124FF2705
:1020B000591B99F0593F50F4503E68F11A16F04000
:1020C000A22F232F342F4427585FF3CF46953795FF
:1020D0002795A795F0405395C9F77EF41F16BA0BC4
:1020E000620B730B840BBAF09150A1F0FF0FBB1F72
:1020F000661F771F881FC2F70EC0BA0F621F731FBB
:10210000841F48F4879577956795B795F7959E3F17
:1021100008F0B3CF9395880F08F09927EE0F9795A5
:10212000879508950CD0EBC0E3D040F0DAD030F0C2
:1021300021F45F3F19F0CCC0511115C1CFC0F0D0D0
:1021400098F39923C9F35523B1F3951B550BBB277E
:10215000AA2762177307840738F09F5F5F4F220F2B
:10216000331F441FAA1FA9F333D00E2E3AF0E0E824
:1021700030D091505040E695001CCAF729D0FE2F70
:1021800027D0660F771F881FBB1F26173707480702
:10219000AB07B0E809F0BB0B802DBF01FF279358B8
:1021A0005F4F2AF09E3F510568F092C0DCC05F3F50
:1021B000ECF3983EDCF3869577956795B795F795A0
:1021C0009F5FC9F7880F911D9695879597F9089598
:1021D000E1E0660F771F881FBB1F62177307840734
:1021E000BA0720F0621B730B840BBA0BEE1F88F743
:1021F000E095089504D06894B111B5C0089598D0C1
:1022000088F09F5790F0B92F9927B751A0F0D1F0DF
:10221000660F771F881F991F1AF0BA95C9F712C069
:10222000B13081F09FD0B1E008959CC0672F782F26
:102230008827B85F39F0B93FCCF3869577956795D5
:10224000B395D9F73EF490958095709561957F4F41
:102250008F4F9F4F0895E89409C097FB3EF49095E7
:102260008095709561957F4F8F4F9F4F9923A9F06F
:10227000F92F96E9BB279395F695879577956795FE
:10228000B795F111F8CFFAF4BB0F11F460FF1BC042
:102290006F5F7F4F8F4F9F4F16C0882311F096E9D5
:1022A00011C0772321F09EE8872F762F05C0662383
:1022B00071F096E8862F70E060E02AF09A95660F3C
:1022C000771F881FDAF7880F9695879597F90895F5
:1022D00097F99F6780E870E060E008959FEF80ECD9
:1022E000089500240A94161617061806090608957C
:1022F00000240A9412161306140605060895092EE2
:102300000394000C11F4882352F0BB0F40F4BF2B50
:1023100011F460FF04C06F5F7F4F8F4F9F4F089590
:1023200057FD9058440F551F59F05F3F71F0479586
:10233000880F97FB991F61F09F3F79F0879508956B
:10234000121613061406551FF2CF4695F1DF08C08A
:10235000161617061806991FF1CF869571056105A7
:1023600008940895E894BB2766277727CB0197F94F
:1023700008950EF0E8C0B2CF6894AACFD9DFC8F3B1
:102380009923D1F3C6F3DF93CF931F930F93FF925B
:10239000C92FDD2788232AF02197660F771F881F12
:1023A000DAF720E030E040E85FEB9FE3883920F087
:1023B000803E30F021968F7751DEE8E6F0E003C0F2
:1023C0004DDEE5E9F0E0D4D08B01BE01EC01FB2E3F
:1023D0006F5771097595771F880B990B3EDF28E1C0
:1023E00032E741E35FE316D0AF2D9801AE01FF90D5
:1023F0000F911F91CF91DF9142DE81CF0BD07FCF24
:1024000070DF28F075DF18F0952309F061CF66CFF3
:102410001124A9CF85DFA0F3959FD1F3950F50E04C
:10242000551F629FF001729FBB27F00DB11D639F86
:10243000AA27F00DB11DAA1F649F6627B00DA11D2C
:10244000661F829F2227B00DA11D621F739FB00DD2
:10245000A11D621F839FA00D611D221F749F332742
:10246000A00D611D231F849F600D211D822F762FDB
:102470006A2F11249F5750408AF0E1F088234AF0D8
:10248000EE0FFF1FBB1F661F771F881F9150504024
:10249000A9F79E3F510570F01BCF65CF5F3FECF36E
:1024A000983EDCF3869577956795B795F795E79510
:1024B0009F5FC1F7FE2B880F911D9695879597F921
:1024C000089511F40EF40ACF3EC032DFD0F3992301
:1024D000D9F3CEF39F57550B87FF43D00024A0E6D6
:1024E00040EA900180585695979528F4805C660FD5
:1024F000771F881F20F026173707480730F4621B24
:10250000730B840B202931294A2BA6951794079425
:10251000202531254A2758F7660F771F881F20F09E
:1025200026173707480730F4620B730B840B200D16
:10253000311D411DA09581F7B901842F9158880F55
:102540009695879508959F3F31F0915020F4879597
:1025500077956795B795880F911D9695879597F90B
:10256000089591505040660F771F881FD2F7089545
:10257000DF93CF931F930F93FF92EF92DF927B0134
:102580008C01689405C0DA2EEF0144DFFE01E89467
:10259000A5912591359145915591AEF3EF016FDDF0
:1025A000FE019701A801DA9479F7DF90EF90FF9090
:1025B0000F911F91CF91DF910895DB018F939F932E
:1025C0000E942E13BF91AF91A29F800D911DA39FDA
:1025D000900DB29F900D11240895A1E21A2EAA1B0E
:1025E000BB1BFD010DC0AA1FBB1FEE1FFF1FA217C3
:1025F000B307E407F50720F0A21BB30BE40BF50BC0
:10260000661F771F881F991F1A9469F76095709548
:10261000809590959B01AC01BD01CF010895052ED9
:1026200097FB1EF400940E94261357FD07D00E94CA
:10263000ED1207FC03D04EF40C94261350954095F0
:10264000309521953F4F4F4F5F4F0895909580955E
:10265000709561957F4F8F4F9F4F08950E943F1354
:10266000A59F900DB49F900DA49F800D911D1124E6
:102670000895EE0FFF1F0590F491E02D0994A29F9D
:10268000B001B39FC001A39F700D811D1124911D46
:10269000B29F700D811D1124911D0895F894FFCFF4
:1026A0000100000001FF7B07A406EF059805FB046D
:1026B0007004F603BC034461746120436F6C6C6565
:1026C0006374696F6E20426567696E002C000000BC
:1026D00000000F04E203B703BF03D203E1030D0AB6
:1026E000006E616E00696E66006F7666002E0000F7
:1026F0000000006A0EE40CEC0D050EF70D480E000C
:00000001FF
